:03000000020008F3
:0300610002000397
:0500030012008380FEE5
:020064007A0020
:03006600BA0C00D1
:0600690050177B007C0033
:0E006F00C3EB94FFEC94FF50070BBB00F30CA7
:02007D0080F011
:03007F000A80E410
:01008200225B
:040083007508007587
:030087000932AA91
:0A008A0008AB097C008A828B838C8E
:0C009400F01201E574412508F582E43506
:0A00A00009F583E4F074432508F528
:0C00AA0082E43509F5837403F0744425EA
:0A00B60008F582E43509F58374FFB4
:0A00C000F0A37403F0120C7D751F0D
:0300CA00F47520AA
:0500CD003275210090D6
:0900D200325075F000120DCB1242
:0A00DB000D3274412508F582E4356A
:0A00E50009F5837401F0120D611299
:0600EF000064120D39123D
:0600F5000064120D4D1223
:0600FB000064120B631209
:0501010000641200641F
:0A010600AA08AB097C008A828B83F3
:0C0110008CF01209AFE5826003120D397B
:0A011C0074412508F582E43509F569
:0E01260083E0FABA02DA120BDAE58260D31235
:040134000D3980CE33
:0E11170081040101010101070102020202022E
:0E11250002001B1B1B1B1B1B1B1F00000000DE
:0E1133000000003F0303010101010107020259
:0E1141000202020202001F1716171717171FCF
:0E114F00000000000000003F810804010101C3
:0E115D00010701000204080000001D1D1F1FF5
:0E116B001F1F1F1F090000000000003F0101B0
:0E11790001010101010700000000000000005C
:0E1187001F1F1F1F1F1F1F1F00000000000062
:02119500003F19
:0E11970000000000000000000000000000004A
:0E11A50000000000000000000000000000003C
:0811B300000000000000000034
:0711BB00C000001FEE4E0012
:08013800AA8274705AF58222BC
:0A014000E5825470C4540FF58222CA
:08014A00AA82740F5AF582220B
:0C015200AA82AB83ACF07470550CFD8ADF
:0E015E00828B838CF01210F7F582C002C00372
:0E016C00C004C00512014AE582D005D004D0BF
:0E017A0003D002540F42058A828B838CF0ED75
:03018800020DB2B3
:0C018B00AA82AB83ACF0E50DC454F0FD7B
:0E0197005305708A828B838CF01210F7F5826C
:0E01A500C002C003C004C00512014AE582D0AA
:0E01B30005D004D003D002540F42058A828B7F
:0701C100838CF0ED020DB28A
:0E01C800AA82AB83ACF01210F7FD53057074E1
:0C01D6000F551F42058A828B838CF0EDD0
:0301E200020DB259
:0801E50085821F85832085F04F
:0301ED00217D1061
:0C01F000ED14FE25E025E0FF251FF8E4DB
:0A01FC003520F9AA21888289838A40
:0B020600F0E4120DB2EF251FFFE435FD
:0A02110020FAAB2174012FFCE43A3F
:0E021B00F88B018C82888389F0E4120DB27496
:0E022900022FFFE43AFA8F828A838BF0E412F0
:0E0237000DB2A3E4120DB28E05ED70AD744051
:08024500251FFAE43520FBAC93
:0C024D00218A828B838CF07410020DB2A9
:0E025900AA82AB83ACF074402AFAE43BFB7D32
:010267000096
:0E0268008A828B838CF01210F7FEC3ED9E503D
:04027600030D80EE06
:01027A002261
:08027B0085821185831285F0D4
:0402830013AD0EAEFB
:0A0287000FAF108D828E838FF012EE
:0C02910010F7F8747058F9B920028003CF
:03029D000203F267
:0E02A00074012DF9E43EFA8F0389828A838B64
:0E02AE00F01210F7FABA146274022DFBE43E4F
:0E02BC00FC8F018B828C8389F01210F7FBA35C
:0D02CA001210F7FCBB021FBC001C74412584
:0502D70011F514E435EF
:0402DC0012F515857D
:0302E0001316856D
:0602E300148285158385DD
:0702E90016F07402020DB2D1
:0C02F000BB0119BC001674412511FBE491
:0A02FC003512FCA9138B828C838954
:06030600F07401020DB2CB
:0C030C007480588D828E838FF0020DB239
:0E031800BA154090E6C4E4F090E6C57401F01A
:0803260074432511F514E435C0
:04032E0012F515852A
:0A033200131674022DFBE43EFC8F4D
:0D033C00018B828C8389F01210F7FBA31255
:0703490010F7FC851482850A
:0703500015838516F0EB1286
:040357000DB280540F
:0E035B00BA164590E6C4E4F090E6C57402F0D0
:0803690074442511F514E4357C
:0403710012F51585E7
:0A037500131674022DF9E43EFA8F0E
:0D037F000389828A838BF01210F7F9A31214
:07038C0010F7FA85148285C9
:0703930015838516F0E91245
:09039A000DB2A3EA120DB2800CB1
:0C03A3007480588D828E838FF0020DB2A2
:0E03AF0090E4327407F074022DFAE43EFB8FE6
:0D03BD00048A828B838CF01210F7FAA312D1
:0B03CA0010F7FB903246EAF0A3EBF0C6
:0A03D500E5BB30E7FB751F01E4F5FE
:0803DF002090324675F0001277
:0B03E700109C90E4327416F00204D960
:0903F200747058FABA100280037D
:0303FB000204CC2D
:0E03FE0074012DFAE43EFB8F048A828B838CFF
:0C040C00F01210F7FABA143774022DF544
:0604180014E43EF5158F0F
:08041E001674412511FBE435C1
:0A04260012FCA9138B828C8389F06D
:0A0430001210F7FB7C008514828592
:07043A0015838516F0EB129B
:080441000DB2A3EC120DB20292
:0204490004D9D4
:0B044B00BA153674022DF514E43EF5DE
:06045600158F167443250A
:07045C0011FBE43512FCA9BD
:0C046300138B828C8389F01210F7FB7C55
:08046F000085148285158385C8
:0904770016F0EB120DB2A3EC1219
:040480000DB28055E4
:0B048400BA163974022DF514E43EF5A1
:06048F00158F16744425D0
:0704950011F9E43512FAAB86
:0C049C001389828A838BF01210F7F9A3F9
:0804A8001210F7FA8514828599
:0704B00015838516F0E91227
:0904B7000DB2A3EA120DB2801986
:0C04C0007480588D828E838FF0020DB284
:0D04CC005300808D828E838FF0E8120DB2F8
:0104D9002200
:0804DA0085821F85832085F057
:0804E200217440251FFDE435E3
:0A04EA0020FEAF218D828E838FF07B
:0C04F4001210F7F52425E025E0FE7F0043
:09050000C3EF952440030205BE7F
:0E050900C006EF75F004A4F8A9F0E824C0F5D0
:0A05170022E934E7F523EF2F25E079
:09052100FC251FFEE43520FAABB5
:0B052A00218E828A838BF01210F7856F
:0A0535002282852383F0740128FA66
:0C053F00E439FBEA24C0F522EB34E7F5B8
:05054B0023EC251FF563
:0505500025E43520F553
:03055500268521D7
:080558002774012525FBE435A1
:0A05600026FDAA278B828D838AF006
:07056A001210F785228285C3
:0C0571002383F0740228FAE439FBEA242A
:0C057D00C0FAEB34E7FB74022525FCE417
:0A0589003526FDAE278C828D838E8F
:0E059300F01210F7FCA31210F7FE8A828B8381
:0E05A100EEF0740328F8E439F9E824C0F5827E
:0D05AF00E934E7F5837D00ECF00FD0060283
:0205BC00050038
:0E05BE000000000090E68FEEF00000000090BC
:0805CC00E68DE4F07A007B00EB
:0E05D400C3EA9410EB9427500F90E6A2E0FCCF
:0A05E20030E1070ABA00EB0B80E8D5
:0E05EC0090E6A2E0FA30E10890E6A2E0FA54B0
:0205FA00FDF012
:0105FC0022DC
:0E05FD00AA82AB83ACF074022AFAE43BFB8ABC
:0E060B00828B838CF01210F7FAA31210F7FB0B
:0A061900BA0207BB0004758202223A
:0406230075820122B9
:06062700AA82AB83ACF0D7
:0E062D00E5BB30E7FB90E6C4E4F000000000FF
:0B063B0090E6C5E51FF00000000090F5
:07064600E6F1E07D007E00FB
:0E064D00C3ED9464EE9400500CE5BB20E7076B
:07065B000DBD00EE0E80EB67
:0E066200BD6422BE001F90E6F574FFF08A8290
:0E0670008B838CF01210F7FD4305808A828B7D
:09067E00838CF0ED120DB2802412
:0E06870074022AFAE43BFBAEBD7D00AFBF78E3
:0E06950000EF4205E842068A828B838CF0ED6E
:0806A300120DB2A3EE120DB21C
:0106AB00222C
:0E06AC00AA82AB83ACF090E6C4E4F00000003C
:0E06BA000090E6C5E4F0000000008A828B8309
:0E06C8008CF01210F7FEE4FD74012AFFE43BF3
:0E06D600F88C018F82888389F01210F7FF786C
:0C06E40000903248EF4DF0E84EA3F07D8E
:0306F000487E320F
:0C06F300E5BB30E7FB8D078E0079007539
:0A06FF001F01E4F5208F8288838933
:0E070900F0C002C003C00412109CD004D00344
:02071700D0020E
:0E071900E5BB30E7FB74022AFAE43BFB8A8260
:0E0727008B838CF01210F7FAA31210F7FB90E0
:0A0735003248EAF0A3EBF07D487EA5
:01073F003287
:0C074000E5BB30E7FB7A00751F01E4F513
:0A074C00208D828E838AF002109C3B
:0807560085821785831885F0E8
:06075E001974402517F597
:050764001CE43518F54E
:030769001D8519D2
:04076C001E751A00DC
:07077000851C82851D8385B5
:080777001EF01210F7F9C3E5B2
:07077F001A99505EE51A25EE
:090786001A25E0F92517F8E43505
:0A078F0018FAAB1988828A838BF0F8
:0C0799001210F7F820E73DE92517F9E4FD
:0A07A5003518FAAB1989048A008B9D
:0E07AF000589828A838BF01210F7F953010F2F
:0807BD00B90A148C0E880F8D9F
:0507C50010851782857C
:0607CA0018838519F012EE
:0407D000027B80091F
:0907D4008C8288838DF01206ACC2
:0407DD00051A808FEA
:0A07E10074402517FAE43518FBAE4A
:0507EB0019751B0075EB
:0207F0001A00ED
:0C07F2008A828B838EF01210F7FFC3E5A3
:0507FE001A9F400122DA
:0A080300C002C003C006E51A251A62
:0A080D0025E0FF2517F9E43518FA7D
:0C081700AB1989828A838BF01210F7F96C
:0E082300D006D003D00220E756C002C003C0AA
:0A08310006EF2517FFE43518F9AAB9
:0C083B00198F0489008A058F8289838A46
:0D084700F01210F7FF53070FBF0A028008E0
:08085400D006D003D002800A97
:0A085C00D006D003D002051B801C5B
:06086600E51AC3951BF525
:0C086C001F8C8288838DF0C002C003C086
:0A08780006120627D006D003D002B6
:05088200051A0207F257
:0808870085821F85832085F0A6
:0B088F002190E68DE0FD0303543FF5CF
:0C089A002290E68DE0FE5403600475829D
:0208A60001222D
:0208A8007E00D0
:0C08AA00C3EE9522502FEE75F004A4243C
:0E08B60080F58274E735F0F583E0FF5307709C
:0508C400BF00028013DB
:0508C900BF1002800ECB
:0508CE00BF20028009BB
:0508D300BF400280049B
:0408D8007582012202
:0308DC000E80CBC0
:0308DF007523007E
:0808E200C3E523952240030247
:0208EA0009956E
:0808EC00E523252325E0FF258B
:0708F4001FF8E43520F9AD07
:0A08FB0021E52375F004A4FAABF028
:0E0905002480F582EB34E7F583E08882898355
:0B0913008DF0120DB2EF251FFFE43540
:08091E0020FCAD2174012FF54E
:0609260024E43CF5258DE0
:0C092C002674012AFEE43BF8EE2480F55E
:0B09380082E834E7F583E08524828527
:0609430025838526F01259
:0E0949000DB274022FFFE43CFC74022AFEE49F
:0E0957003BF8EE2480F582E834E7F583E0F803
:0E0965007E0074032AFAE43BFBEA2480F5824C
:0E097300EB34E7F583E0FA7B004206EB42002E
:0D0981008F828C838DF0EE120DB2A3E81270
:05098E000DB20523027B
:0209930008E278
:0A0995007440251FFAE43520FBAC86
:0A099F00218A828B838CF0E522127E
:0609A9000DB27582002270
:0E09AF00AA82AB83ACF090E6A1E0FD30E1033C
:0309BD00020A9695
:0D09C00090E780E0FD74705DFEBE30101207
:0E09CD000B630000000090E68DE4F0758200E0
:0109DB0022F9
:0E09DC0074705DFEBE5010120D610000000030
:0909EA0090E68DE4F07582002214
:0E09F30074705DFEBE600D0000000090E68D89
:060A0100E4F07582012201
:0E0A070090E781E0FEBE1310120A9A00000074
:0A0A15000090E68DE4F075820022E7
:0E0A1F0074705DFFBF7020BE121D740F5DFE6F
:0E0A2D0024F64015740F5DF582120AFA0000DF
:0B0A3B00000090E68DE4F075820022C0
:0D0A46008A828B838CF0C002C003C00412B2
:0E0A53000887E582D004D003D00270158A8295
:0E0A61008B838CF0C002C003C004120756D075
:050A6F0004D003D002D9
:0D0A74008A828B838CF0C002C003C0041284
:0E0A810004DAD004D003D0028A828B838CF07A
:070A8F001201E5758201224E
:040A96007582002243
:0E0A9A0090E6C4E4F00000000090E6C5E4F031
:0E0AA8000000000090324A7413F0A37471F045
:040AB6007A4A7B32CB
:0C0ABA00E5BB30E7FB8A048B057E00756D
:0A0AC6001F01E4F5208C828D838E61
:040AD000F012109C74
:0D0AD400E5BB30E7FB90324AE4F0A3F07A76
:030AE1004A7B321B
:0C0AE400E5BB30E7FB7C00751F01E4F56A
:0A0AF000208A828B838CF002109C98
:0E0AFA00AA8290E6C4E4F00000000090E6C579
:0E0B0800E4F0000000004302708A037A0090BF
:0C0B1600324C74124AF0A3EBF07A4C7BD6
:010B220032A0
:0C0B2300E5BB30E7FB8A048B057E007503
:0A0B2F001F01E4F5208C828D838EF7
:040B3900F012109C0A
:0D0B3D00E5BB30E7FB90324CE4F0A3F07A0A
:030B4A004C7B32AF
:0C0B4D00E5BB30E7FB7C00751F01E4F500
:0A0B5900208A828B838CF002109C2E
:0E0B630090E6C4E4F00000000090E6C5E4F067
:060B7100000000007A0004
:030B7700BA0A00B7
:0E0B7A00505D74304AFC7B0090324EEBF0A3CD
:060B8800ECF07B4E7C3214
:0C0B8E00E5BB30E7FB8B058C067F007593
:0A0B9A001F01E4F5208D828E838F89
:080BA400F0C00212109CD00207
:0D0BAC00E5BB30E7FB90324EE4F0A3F07B98
:030BB9004E7C323D
:0C0BBC00E5BB30E7FB7D00751F01E4F590
:0C0BC800208B828C838DF0C00212109CE8
:050BD400D0020A809E22
:010BD90022F9
:0A0BDA00120D75E5826003020C792C
:0E0BE40090E6A5E0FA20E20890E6047406F020
:020BF200E4F02D
:060BF400758200120D8560
:0E0BFA00E5BB30E7FB90E6C5E4F0000000002C
:0E0C080090E6C4E4F00000000090E6D0E4F0B6
:0D0C160090E6D174DCF075BB067A007B001F
:0E0C2300C3EA9432EB9400500CE5BB20E707C7
:070C31000ABA00EE0B80EB94
:0C0C3800BA3209BB0006758200120DA341
:040C44007A007B00B7
:0E0C4800C3EA944BEB9400500CE5BB20E70789
:070C56000ABA00EE0B80EB6F
:0C0C5D00BA4B09BB000690E6F574FFF0EE
:0E0C6900758201120DA3758201120D85758230
:020C7700012258
:040C7900758201225D
:0E0C7D0090E6007410F090E60174A6F074A6E4
:0E0C8B00F00000000090E60B7403F000000083
:0E0C99000090E61074A0F00000000090E6113C
:0E0CA70074A0F00000000090E68DE4F0000064
:0D0CB500000090E61474E2F00000000090D2
:0E0CC200E6047480F00000000090E6047482E6
:0E0CD000F00000000090E6047484F0000000C4
:0E0CDE000090E6047486F00000000090E6042A
:0E0CEC007488F00000000090E604E4F00000C0
:0D0CFA00000090E6497482F00000000090B8
:0E0D0700E6497482F00000000090E61A740DB8
:0E0D1500F00000000090E6247401F0000000E1
:0E0D23000090E62574B8F00000000043A880A0
:010D3100229F
:070D320075B2BF7580FF22BE
:070D39005380DF7A327B00DA
:050D40001ABAFF011BBF
:080D4500EA4B70F74380202205
:070D4D005380EF7A327B00B6
:050D54001ABAFF011BAB
:080D5900EA4B70F74380102201
:070D61005380F77A887B1331
:050D68001ABAFF011B97
:080D6D00EA4B70F743800822F5
:0C0D750074405580FABA400475820122D7
:040D81007582002255
:080D8500E582FA700353807F40
:060D8D00BA01034380805F
:010D9300223D
:080D9400E582FA70035380FBB5
:060D9C00BA0103438004CC
:010DA200222E
:080DA300E582FA70035380FDA4
:060DAB00BA0103438002BF
:010DB100221F
:06003700E478FFF6D8FD9D
:0800150079ABE94400601B7A9D
:05001D000190111778AD
:0300220050759284
:0A00250032E493F2A308B8000205CC
:08002F0092D9F4DAF27592FF98
:0E0DB20020F71030F6118883A88220F507F68E
:050DC000A8837583000B
:010DC500220B
:030DC600F280F7C1
:020DC900F02216
:080DCB0085822285832385F057
:0C0DD3002490E601E054FCF0E04402F043
:0A0DDF0090E6F574FFF0AD1FAE20A2
:0C0DE900AF218D828E838FF01210F790E6
:0E0DF500E6F3F074012DF8E43EF98F028882D7
:0E0E030089838AF01210F7F890E6C3F07402AB
:0E0E11002DFAE43EFB8F048A828B838CF01254
:0E0E1F0010F790E6C1F074032DFAE43EFB8F4D
:0E0E2D00048A828B838CF01210F790E6C2F0DC
:0E0E3B0074052DFAE43EFB8F048A828B838CB3
:0E0E4900F01210F790E6C0F074062DFDE43EA6
:0E0E5700FE8D828E838FF01210F7FD90E6F470
:0A0E6500F075AF07AA22AB238B9AA9
:0C0E6F007B008A9B759DE4759E007A0054
:030E7B00BA80003A
:0E0E7E00500C90E67BE0FB90E67CF00A80EFE3
:0E0E8C0090E67174FFF075B4FF90E672E0FA24
:0E0E9A004480F043B6800000000090E6C4E4FF
:0E0EA800F00000000090E6C5E4F090E6C6F011
:0E0EB60090E6C7F090E6C8F090E6C9E4F09030
:0E0EC400E6CAF090E6CBF090E6CCF090E6CDDA
:030ED200E4F02227
:0C0ED500AA82AB83ACF0E51F75F009A405
:0E0EE100FD2AFEE43BFF8C008E828F8388F09A
:0E0EEF001210F790E6C6F07E0074012DFFE4AD
:0E0EFD003EF8EF2AFFE83BF88C018F828883D5
:0E0F0B0089F01210F790E6C7F074022DFFE493
:0E0F19003EF8EF2AFFE83BF88C018F828883B8
:0E0F270089F01210F790E6C8F074032DFFE475
:0E0F35003EF8EF2AFFE83BF88C018F8288839C
:0E0F430089F01210F790E6C9F074042DFFE457
:0E0F51003EF8EF2AFFE83BF88C018F82888380
:0E0F5F0089F01210F790E6CAF074052DFFE439
:0E0F6D003EF8EF2AFFE83BF88C018F82888364
:0E0F7B0089F01210F790E6CBF074062DFFE41B
:0E0F89003EF8EF2AFFE83BF88C018F82888348
:0E0F970089F01210F790E6CCF074072DFDE4FF
:0E0FA5003EFEED2AFAEE3BFB8A828B838CF037
:080FB3001210F790E6CDF022C8
:0E0FBB00AA82AB83ACF0FD8C068D0790E6CECB
:0E0FC900EFF0000000007F0090E6CFEEF00099
:0E0FD7000000007C007D0090E6D0EBF00000F2
:080FE500000090E6D1EAF022C1
:080FED0085822185832285F035
:010FF50023D8
:0D0FF600E5BB30E7FB90E6F1E0FD7E0085F5
:0610030021828522838595
:0910090023F0ED120DB2A3EE126A
:081012000DB2E51F24FFFDE50E
:06101A002034FFFE7F0000
:0A1020008F007900C3E8951FE995E1
:03102A0020506EE5
:0C102D00E5BB30E7FBEF75F002A42521C5
:0A103900F8E52235F0F9AA23ABBD5B
:0E1043008B047B00888289838AF0EB120DB249
:08105100A3EC120DB288248902
:0A105900258A26888289838AF01216
:0E10630010F7FAA31210F7FB8F047800ECB51B
:0A1071000508E8B50604ACBF8002D4
:02107B00ACBE09
:0C107D007800EC4202E8420385248285E2
:0710890025838526F0EA1221
:091090000DB2A3EB120DB20F0228
:02109900102025
:01109B002232
:08109C00AA82AB83ACF07D00D9
:0A10A4008D067F00C3EE951FEF9547
:0310AE0020502EA1
:0E10B100E5BB30E7FBED75F002A42AFEEB353F
:0E10BF00F0FF8C008E828F8388F01210F7FEF7
:0E10CD00A31210F790E6F0F07F0090E6F1EE2F
:0410DB00F00D80C5CF
:0110DF0022EE
:0210E000AA82E2
:0B10E200E5BB30E7FB74044AF5BB22BD
:0210ED00AA82D5
:0810EF00E5BB30E7FB8ABB22E0
:08003D007800E84400600A7934
:03004500007592B1
:0600480032E4F309D8FCCC
:08004E007850E84400600C79D1
:0B00560001903200E4F0A3D8FCD9FABE
:03000800758127D8
:0A000B00121113E5826003020003E6
:0E10F70020F71430F6148883A88220F507E64F
:06110500A883758300229F
:03110B00E280F788
:03110E00E4932245
:02111100E022DA
:0411130075820022BF
:00000001FF
